{
  "_format": "hh-sol-artifact-1",
  "contractName": "Marketplace",
  "sourceName": "src/backend/contracts/Marketplace.sol",
  "abi": [
    {
      "inputs": [
        {
          "internalType": "uint256",
          "name": "_feePercent",
          "type": "uint256"
        }
      ],
      "stateMutability": "nonpayable",
      "type": "constructor"
    },
    {
      "anonymous": false,
      "inputs": [
        {
          "indexed": false,
          "internalType": "uint256",
          "name": "itemId",
          "type": "uint256"
        },
        {
          "indexed": true,
          "internalType": "address",
          "name": "nft",
          "type": "address"
        },
        {
          "indexed": false,
          "internalType": "uint256",
          "name": "tokenId",
          "type": "uint256"
        },
        {
          "indexed": false,
          "internalType": "uint256",
          "name": "price",
          "type": "uint256"
        },
        {
          "indexed": true,
          "internalType": "address",
          "name": "seller",
          "type": "address"
        },
        {
          "indexed": true,
          "internalType": "address",
          "name": "buyer",
          "type": "address"
        }
      ],
      "name": "Bought",
      "type": "event"
    },
    {
      "anonymous": false,
      "inputs": [
        {
          "indexed": false,
          "internalType": "uint256",
          "name": "itemId",
          "type": "uint256"
        },
        {
          "indexed": true,
          "internalType": "address",
          "name": "nft",
          "type": "address"
        },
        {
          "indexed": false,
          "internalType": "uint256",
          "name": "tokenId",
          "type": "uint256"
        },
        {
          "indexed": false,
          "internalType": "uint256",
          "name": "price",
          "type": "uint256"
        },
        {
          "indexed": true,
          "internalType": "address",
          "name": "seller",
          "type": "address"
        }
      ],
      "name": "Offered",
      "type": "event"
    },
    {
      "inputs": [
        {
          "internalType": "uint256",
          "name": "_itemId",
          "type": "uint256"
        }
      ],
      "name": "cancelItem",
      "outputs": [],
      "stateMutability": "nonpayable",
      "type": "function"
    },
    {
      "inputs": [],
      "name": "feeAccount",
      "outputs": [
        {
          "internalType": "address payable",
          "name": "",
          "type": "address"
        }
      ],
      "stateMutability": "view",
      "type": "function"
    },
    {
      "inputs": [],
      "name": "feePercent",
      "outputs": [
        {
          "internalType": "uint256",
          "name": "",
          "type": "uint256"
        }
      ],
      "stateMutability": "view",
      "type": "function"
    },
    {
      "inputs": [
        {
          "internalType": "uint256",
          "name": "_tokenId",
          "type": "uint256"
        }
      ],
      "name": "getItemId",
      "outputs": [
        {
          "internalType": "uint256",
          "name": "",
          "type": "uint256"
        }
      ],
      "stateMutability": "view",
      "type": "function"
    },
    {
      "inputs": [
        {
          "internalType": "uint256",
          "name": "_itemId",
          "type": "uint256"
        }
      ],
      "name": "getTotalPrice",
      "outputs": [
        {
          "internalType": "uint256",
          "name": "",
          "type": "uint256"
        }
      ],
      "stateMutability": "view",
      "type": "function"
    },
    {
      "inputs": [],
      "name": "itemCount",
      "outputs": [
        {
          "internalType": "uint256",
          "name": "",
          "type": "uint256"
        }
      ],
      "stateMutability": "view",
      "type": "function"
    },
    {
      "inputs": [
        {
          "internalType": "uint256",
          "name": "",
          "type": "uint256"
        }
      ],
      "name": "items",
      "outputs": [
        {
          "internalType": "uint256",
          "name": "itemId",
          "type": "uint256"
        },
        {
          "internalType": "contract IERC721",
          "name": "nft",
          "type": "address"
        },
        {
          "internalType": "uint256",
          "name": "tokenId",
          "type": "uint256"
        },
        {
          "internalType": "uint256",
          "name": "tokenPrice",
          "type": "uint256"
        },
        {
          "internalType": "address payable",
          "name": "seller",
          "type": "address"
        },
        {
          "internalType": "bool",
          "name": "sold",
          "type": "bool"
        },
        {
          "internalType": "bool",
          "name": "canceled",
          "type": "bool"
        }
      ],
      "stateMutability": "view",
      "type": "function"
    },
    {
      "inputs": [
        {
          "internalType": "uint256",
          "name": "_itemId",
          "type": "uint256"
        }
      ],
      "name": "purchaseItem",
      "outputs": [],
      "stateMutability": "payable",
      "type": "function"
    },
    {
      "inputs": [
        {
          "internalType": "contract IERC721",
          "name": "_nft",
          "type": "address"
        },
        {
          "internalType": "uint256",
          "name": "_tokenId",
          "type": "uint256"
        },
        {
          "internalType": "uint256",
          "name": "_price",
          "type": "uint256"
        }
      ],
      "name": "sellItem",
      "outputs": [],
      "stateMutability": "nonpayable",
      "type": "function"
    },
    {
      "inputs": [
        {
          "internalType": "uint256",
          "name": "",
          "type": "uint256"
        }
      ],
      "name": "tokenItem",
      "outputs": [
        {
          "internalType": "uint256",
          "name": "",
          "type": "uint256"
        }
      ],
      "stateMutability": "view",
      "type": "function"
    }
  ],
  "bytecode": "0x60c06040523480156200001157600080fd5b50604051620015573803806200155783398181016040528101906200003791906200009c565b60016000819055503373ffffffffffffffffffffffffffffffffffffffff1660808173ffffffffffffffffffffffffffffffffffffffff1660601b815250508060a0818152505050620000ec565b6000815190506200009681620000d2565b92915050565b600060208284031215620000af57600080fd5b6000620000bf8482850162000085565b91505092915050565b6000819050919050565b620000dd81620000c8565b8114620000e957600080fd5b50565b60805160601c60a05161143462000123600039600081816106a601526107850152600081816103d601526109c801526114346000f3fe6080604052600436106100915760003560e01c80637fd6f15c116100595780637fd6f15c1461017b578063a9a76ece146101a6578063bfb231d2146101e3578063ca7dd37514610226578063d38ea5bf1461026357610091565b8063277809741461009657806351563f8e146100d357806365e17c9d146100fc57806368915327146101275780636bfb0d0114610150575b600080fd5b3480156100a257600080fd5b506100bd60048036038101906100b89190610c87565b61027f565b6040516100ca9190610eee565b60405180910390f35b3480156100df57600080fd5b506100fa60048036038101906100f59190610c87565b610297565b005b34801561010857600080fd5b506101116103d4565b60405161011e9190610ddc565b60405180910390f35b34801561013357600080fd5b5061014e60048036038101906101499190610c38565b6103f8565b005b34801561015c57600080fd5b5061016561069e565b6040516101729190610eee565b60405180910390f35b34801561018757600080fd5b506101906106a4565b60405161019d9190610eee565b60405180910390f35b3480156101b257600080fd5b506101cd60048036038101906101c89190610c87565b6106c8565b6040516101da9190610eee565b60405180910390f35b3480156101ef57600080fd5b5061020a60048036038101906102059190610c87565b6106e5565b60405161021d9796959493929190610f09565b60405180910390f35b34801561023257600080fd5b5061024d60048036038101906102489190610c87565b610781565b60405161025a9190610eee565b60405180910390f35b61027d60048036038101906102789190610c87565b6107f9565b005b60036020528060005260406000206000915090505481565b600260005414156102dd576040517f08c379a00000000000000000000000000000000000000000000000000000000081526004016102d490610ece565b60405180910390fd5b600260008190555060006002600083815260200190815260200160002090503373ffffffffffffffffffffffffffffffffffffffff168160040160009054906101000a900473ffffffffffffffffffffffffffffffffffffffff1673ffffffffffffffffffffffffffffffffffffffff161461038e576040517f08c379a000000000000000000000000000000000000000000000000000000000815260040161038590610e8e565b60405180910390fd5b60018160040160156101000a81548160ff021916908315150217905550600060036000836002015481526020019081526020016000208190555050600160008190555050565b7f000000000000000000000000000000000000000000000000000000000000000081565b6002600054141561043e576040517f08c379a000000000000000000000000000000000000000000000000000000000815260040161043590610ece565b60405180910390fd5b600260008190555060008111610489576040517f08c379a000000000000000000000000000000000000000000000000000000000815260040161048090610e2e565b60405180910390fd5b6001600081548092919061049c9061119b565b91905055506040518060e0016040528060015481526020018473ffffffffffffffffffffffffffffffffffffffff1681526020018381526020018281526020013373ffffffffffffffffffffffffffffffffffffffff168152602001600015158152602001600015158152506002600060015481526020019081526020016000206000820151816000015560208201518160010160006101000a81548173ffffffffffffffffffffffffffffffffffffffff021916908373ffffffffffffffffffffffffffffffffffffffff160217905550604082015181600201556060820151816003015560808201518160040160006101000a81548173ffffffffffffffffffffffffffffffffffffffff021916908373ffffffffffffffffffffffffffffffffffffffff16021790555060a08201518160040160146101000a81548160ff02191690831515021790555060c08201518160040160156101000a81548160ff02191690831515021790555090505060015460036000848152602001908152602001600020819055503373ffffffffffffffffffffffffffffffffffffffff168373ffffffffffffffffffffffffffffffffffffffff167f655a0cf9c8db81512be9a76dc1c5ae5380b8816ce6ad659cd61b715e2999d59a600154858560405161068993929190610f78565b60405180910390a36001600081905550505050565b60015481565b7f000000000000000000000000000000000000000000000000000000000000000081565b600060036000838152602001908152602001600020549050919050565b60026020528060005260406000206000915090508060000154908060010160009054906101000a900473ffffffffffffffffffffffffffffffffffffffff16908060020154908060030154908060040160009054906101000a900473ffffffffffffffffffffffffffffffffffffffff16908060040160149054906101000a900460ff16908060040160159054906101000a900460ff16905087565b60007f0000000000000000000000000000000000000000000000000000000000000000606460026000858152602001908152602001600020600301546107c79190611016565b6107d19190611047565b60026000848152602001908152602001600020600301546107f29190610fc0565b9050919050565b6002600054141561083f576040517f08c379a000000000000000000000000000000000000000000000000000000000815260040161083690610ece565b60405180910390fd5b6002600081905550600061085282610781565b9050600060026000848152602001908152602001600020905060008311801561087d57506001548311155b6108bc576040517f08c379a00000000000000000000000000000000000000000000000000000000081526004016108b390610e6e565b60405180910390fd5b813410156108ff576040517f08c379a00000000000000000000000000000000000000000000000000000000081526004016108f690610eae565b60405180910390fd5b600015158160040160149054906101000a900460ff16151514610957576040517f08c379a000000000000000000000000000000000000000000000000000000000815260040161094e90610e4e565b60405180910390fd5b8060040160009054906101000a900473ffffffffffffffffffffffffffffffffffffffff1673ffffffffffffffffffffffffffffffffffffffff166108fc82600301549081150290604051600060405180830381858888f193505050501580156109c5573d6000803e3d6000fd5b507f000000000000000000000000000000000000000000000000000000000000000073ffffffffffffffffffffffffffffffffffffffff166108fc826003015484610a1091906110a1565b9081150290604051600060405180830381858888f19350505050158015610a3b573d6000803e3d6000fd5b5060018160040160146101000a81548160ff0219169083151502179055508060010160009054906101000a900473ffffffffffffffffffffffffffffffffffffffff1673ffffffffffffffffffffffffffffffffffffffff166323b872dd8260040160009054906101000a900473ffffffffffffffffffffffffffffffffffffffff163384600201546040518463ffffffff1660e01b8152600401610ae293929190610df7565b600060405180830381600087803b158015610afc57600080fd5b505af1158015610b10573d6000803e3d6000fd5b5050505060006003600083600201548152602001908152602001600020819055503373ffffffffffffffffffffffffffffffffffffffff168160040160009054906101000a900473ffffffffffffffffffffffffffffffffffffffff1673ffffffffffffffffffffffffffffffffffffffff168260010160009054906101000a900473ffffffffffffffffffffffffffffffffffffffff1673ffffffffffffffffffffffffffffffffffffffff167f8b4c9c8a607d67b321582dd8461041b1dc2ceeca70c8b7f37f8e02095cf2e76d8685600201548660030154604051610bf993929190610f78565b60405180910390a45050600160008190555050565b600081359050610c1d816113d0565b92915050565b600081359050610c32816113e7565b92915050565b600080600060608486031215610c4d57600080fd5b6000610c5b86828701610c0e565b9350506020610c6c86828701610c23565b9250506040610c7d86828701610c23565b9150509250925092565b600060208284031215610c9957600080fd5b6000610ca784828501610c23565b91505092915050565b610cb981611141565b82525050565b610cc8816110e7565b82525050565b610cd7816110d5565b82525050565b610ce6816110f9565b82525050565b610cf581611153565b82525050565b6000610d08602583610faf565b9150610d1382611242565b604082019050919050565b6000610d2b602883610faf565b9150610d3682611291565b604082019050919050565b6000610d4e601783610faf565b9150610d59826112e0565b602082019050919050565b6000610d71602883610faf565b9150610d7c82611309565b604082019050919050565b6000610d94603883610faf565b9150610d9f82611358565b604082019050919050565b6000610db7601f83610faf565b9150610dc2826113a7565b602082019050919050565b610dd681611137565b82525050565b6000602082019050610df16000830184610cbf565b92915050565b6000606082019050610e0c6000830186610cb0565b610e196020830185610cce565b610e266040830184610dcd565b949350505050565b60006020820190508181036000830152610e4781610cfb565b9050919050565b60006020820190508181036000830152610e6781610d1e565b9050919050565b60006020820190508181036000830152610e8781610d41565b9050919050565b60006020820190508181036000830152610ea781610d64565b9050919050565b60006020820190508181036000830152610ec781610d87565b9050919050565b60006020820190508181036000830152610ee781610daa565b9050919050565b6000602082019050610f036000830184610dcd565b92915050565b600060e082019050610f1e600083018a610dcd565b610f2b6020830189610cec565b610f386040830188610dcd565b610f456060830187610dcd565b610f526080830186610cbf565b610f5f60a0830185610cdd565b610f6c60c0830184610cdd565b98975050505050505050565b6000606082019050610f8d6000830186610dcd565b610f9a6020830185610dcd565b610fa76040830184610dcd565b949350505050565b600082825260208201905092915050565b6000610fcb82611137565b9150610fd683611137565b9250827fffffffffffffffffffffffffffffffffffffffffffffffffffffffffffffffff0382111561100b5761100a6111e4565b5b828201905092915050565b600061102182611137565b915061102c83611137565b92508261103c5761103b611213565b5b828204905092915050565b600061105282611137565b915061105d83611137565b9250817fffffffffffffffffffffffffffffffffffffffffffffffffffffffffffffffff0483118215151615611096576110956111e4565b5b828202905092915050565b60006110ac82611137565b91506110b783611137565b9250828210156110ca576110c96111e4565b5b828203905092915050565b60006110e082611117565b9050919050565b60006110f282611117565b9050919050565b60008115159050919050565b6000611110826110d5565b9050919050565b600073ffffffffffffffffffffffffffffffffffffffff82169050919050565b6000819050919050565b600061114c82611177565b9050919050565b600061115e82611165565b9050919050565b600061117082611117565b9050919050565b600061118282611189565b9050919050565b600061119482611117565b9050919050565b60006111a682611137565b91507fffffffffffffffffffffffffffffffffffffffffffffffffffffffffffffffff8214156111d9576111d86111e4565b5b600182019050919050565b7f4e487b7100000000000000000000000000000000000000000000000000000000600052601160045260246000fd5b7f4e487b7100000000000000000000000000000000000000000000000000000000600052601260045260246000fd5b7f54686520746f6b656e5072696365206d7573742062652067726561746572207460008201527f68616e2030000000000000000000000000000000000000000000000000000000602082015250565b7f546865204e4654206973206e6f7420617661696c61626c6520666f722070757260008201527f63686173696e672e000000000000000000000000000000000000000000000000602082015250565b7f546865204e465420646f6573206e6f742065786973742e000000000000000000600082015250565b7f596f7520617265206e6f7420616c6c6f77656420746f2063616e63656c20746860008201527f69732073656c6c2e000000000000000000000000000000000000000000000000602082015250565b7f546865207061796d656e74206d75737420626520657175616c206f722067726560008201527f61746572207468616e20746865204e46542070726963652e0000000000000000602082015250565b7f5265656e7472616e637947756172643a207265656e7472616e742063616c6c00600082015250565b6113d981611105565b81146113e457600080fd5b50565b6113f081611137565b81146113fb57600080fd5b5056fea2646970667358221220babb75d763687aec146ce66ddc8f3be3c975e230ede55403dcd04770fc549d9164736f6c63430008040033",
  "linkReferences": {},
  "deployedLinkReferences": {}
}